:100000000C942A001895000018950000189500001F
:100010000C94C10118950000189500001895000077
:10002000189500001895000018950000189500001C
:10003000189500001895000018950000189500000C
:1000400018950000189500001895000018950000FC
:10005000189500008FE58DBFC8E3E0E24E2E84E0E6
:100060008EBFD4E0F4E05F2EA89584B7082E877F7A
:1000700084BF88E1992781BD91BDEEEFF3E0A0E652
:10008000B0E088278D933197E9F76624D098D1980E
:10009000D29A8FEF87BB8FEF81BB88E082BD85E06E
:1000A00085BD79B7706479BF7894D89AD99ADA9A6D
:1000B000AFE6B0E0EAE4F4E00E949E010E9486010F
:1000C000C8990C947200A8E7B0E08C9187FB882750
:1000D00080F9809580FBA8E7B0E08C9187F98C933C
:1000E0000E945501A8E7B0E08C9187FB0EF42BC06D
:1000F000C9990C948E00A1E6B0E08C918F5F8C932F
:10010000009161000B3318F011F00C9489000C94ED
:100110008C0080E0809361000E945501CA990C9484
:10012000A100809161008150809361000091610085
:100130000F3F11F00C949F008BE3809361000E94AD
:1001400055010C94D200A8E7B0E08C9187FB0EF02B
:1001500029C0C9990C94BF00A2E6B0E08C918F5FD2
:100160008C9300916200073118F011F00C94BA00E2
:100170000C94BD0080E0809362000E945501CA99F2
:100180000C94D200809162008150809362000091B3
:1001900062000F3F11F00C94D00087E18093620061
:1001A0000E9455010E94D8000C946000F894FFCF83
:1001B0007FED78BB709178007F7B70937800009121
:1001C00062004AE00E941502AAE7B0E00C930E9488
:1001D0003E017FEE78BB7091780070647093780078
:1001E000009162004AE00E941502AAE7B0E08C93F9
:1001F0000E943E0177EF78BB709178007F7B70930F
:100200007800009161004AE00E941502AAE7B0E080
:100210000C930E943E017BEF78BB70917800706474
:1002200070937800009161004AE00E941502AAE7ED
:10023000B0E08C930E943E017DEF78BB7091780016
:100240007F7B70937800009160004AE00E94150265
:10025000AAE7B0E00C930E943E017EEF78BB70915C
:1002600078007F7B70937800009160004AE00E94E4
:100270001502AAE7B0E08C930E943E01E2EDF2E0A5
:10028000AAE7B0E08C919927A2E3B0E00E94B40104
:10029000A8E7B0E08C9186FB16F00C945001979A79
:1002A00084E090E00E947701089581E080937900D6
:1002B00000917900053018F011F00C9469010E944A
:1002C000D800A9E7B0E08C918F5F8C9310F40C9468
:1002D00058013F065B4F666D7D077F6F3197F1F7E1
:1002E0000895689462F80895E89462F80895EF9389
:1002F000FF93EE27E82BE92B31F0EAEFF0E031979E
:10030000F1F70197D1F7FF91EF910895EFE6F0E053
:10031000A0E6B0E00C948E01ADE0BB27868197810A
:100320000E94B7010D93838194810E94B7010D93C0
:10033000808191810E94B7010D9308950E94A401CC
:100340000D920020D9F70895C895319600200895A0
:1003500091E005C092E003C094E001C098E0F4DFB2
:100360000D929A95E1F70895E80FF91FF1CF8053A8
:1003700090530027813018F0065F8A95FBCF090F54
:100380000895AF93BF930F939F938F938FB78F93DE
:10039000A0E6B0E08C9183958D938C3309F03DC03D
:1003A00088278E9311968C9183958D938C3309F0C9
:1003B00034C088278E9311968C9183958D938831C4
:1003C00061F588278E9311968C9183958D939C91DE
:1003D0000EE1943089F0963079F0993069F09B30D5
:1003E00059F00CE1923039F411969C911197937069
:1003F00019F4039501C00FE1801778F071F081E0E6
:100400008E9311968C9183958D938D3031F481E08C
:100410008E9311968C9183958C938F918FBF8F9132
:100420009F910F91BF91AF911895FF93881BF9E0B1
:10043000001FFA9511F4FF910895881F841B18F48A
:10044000840F8894F5CF0894F3CF31323A30303AA4
:040450003030000048
:00000001FF
